{
  "address": "0xAF9106b10a1C537dFf4bd18ea5D6bD51E6F41366",
  "abi": [
    {
      "anonymous": false,
      "inputs": [
        {
          "indexed": true,
          "internalType": "address",
          "name": "user",
          "type": "address"
        },
        {
          "indexed": true,
          "internalType": "uint256",
          "name": "pid",
          "type": "uint256"
        },
        {
          "indexed": false,
          "internalType": "uint256",
          "name": "amount",
          "type": "uint256"
        }
      ],
      "name": "Deposit",
      "type": "event"
    },
    {
      "anonymous": false,
      "inputs": [
        {
          "indexed": true,
          "internalType": "address",
          "name": "user",
          "type": "address"
        },
        {
          "indexed": true,
          "internalType": "uint256",
          "name": "pid",
          "type": "uint256"
        },
        {
          "indexed": false,
          "internalType": "uint256",
          "name": "amount",
          "type": "uint256"
        }
      ],
      "name": "EmergencyWithdraw",
      "type": "event"
    },
    {
      "anonymous": false,
      "inputs": [
        {
          "indexed": false,
          "internalType": "uint8",
          "name": "version",
          "type": "uint8"
        }
      ],
      "name": "Initialized",
      "type": "event"
    },
    {
      "anonymous": false,
      "inputs": [
        {
          "indexed": false,
          "internalType": "uint256",
          "name": "oldMultiplier",
          "type": "uint256"
        },
        {
          "indexed": false,
          "internalType": "uint256",
          "name": "newMultiplier",
          "type": "uint256"
        }
      ],
      "name": "NewMultiplier",
      "type": "event"
    },
    {
      "anonymous": false,
      "inputs": [
        {
          "indexed": false,
          "internalType": "uint256",
          "name": "pid",
          "type": "uint256"
        },
        {
          "indexed": false,
          "internalType": "address",
          "name": "lpToken",
          "type": "address"
        },
        {
          "indexed": false,
          "internalType": "uint256",
          "name": "allocPoint",
          "type": "uint256"
        },
        {
          "indexed": false,
          "internalType": "uint256",
          "name": "totalPoint",
          "type": "uint256"
        }
      ],
      "name": "NewPool",
      "type": "event"
    },
    {
      "anonymous": false,
      "inputs": [
        {
          "indexed": false,
          "internalType": "uint256",
          "name": "oldReward",
          "type": "uint256"
        },
        {
          "indexed": false,
          "internalType": "uint256",
          "name": "newReward",
          "type": "uint256"
        }
      ],
      "name": "NewRewardPerBlock",
      "type": "event"
    },
    {
      "anonymous": false,
      "inputs": [
        {
          "indexed": true,
          "internalType": "address",
          "name": "previousOwner",
          "type": "address"
        },
        {
          "indexed": true,
          "internalType": "address",
          "name": "newOwner",
          "type": "address"
        }
      ],
      "name": "OwnershipTransferStarted",
      "type": "event"
    },
    {
      "anonymous": false,
      "inputs": [
        {
          "indexed": true,
          "internalType": "address",
          "name": "previousOwner",
          "type": "address"
        },
        {
          "indexed": true,
          "internalType": "address",
          "name": "newOwner",
          "type": "address"
        }
      ],
      "name": "OwnershipTransferred",
      "type": "event"
    },
    {
      "anonymous": false,
      "inputs": [
        {
          "indexed": true,
          "internalType": "address",
          "name": "user",
          "type": "address"
        },
        {
          "indexed": true,
          "internalType": "uint256",
          "name": "pid",
          "type": "uint256"
        },
        {
          "indexed": false,
          "internalType": "uint256",
          "name": "amount",
          "type": "uint256"
        }
      ],
      "name": "Withdraw",
      "type": "event"
    },
    {
      "inputs": [],
      "name": "BONUS_MULTIPLIER",
      "outputs": [
        {
          "internalType": "uint256",
          "name": "",
          "type": "uint256"
        }
      ],
      "stateMutability": "view",
      "type": "function"
    },
    {
      "inputs": [],
      "name": "acceptOwnership",
      "outputs": [],
      "stateMutability": "nonpayable",
      "type": "function"
    },
    {
      "inputs": [
        {
          "internalType": "uint256",
          "name": "_allocPoint",
          "type": "uint256"
        },
        {
          "internalType": "contract IERC20",
          "name": "_lpToken",
          "type": "address"
        },
        {
          "internalType": "bool",
          "name": "_withUpdate",
          "type": "bool"
        }
      ],
      "name": "add",
      "outputs": [],
      "stateMutability": "nonpayable",
      "type": "function"
    },
    {
      "inputs": [
        {
          "internalType": "uint256",
          "name": "_pid",
          "type": "uint256"
        },
        {
          "internalType": "uint256",
          "name": "_amount",
          "type": "uint256"
        }
      ],
      "name": "deposit",
      "outputs": [],
      "stateMutability": "nonpayable",
      "type": "function"
    },
    {
      "inputs": [
        {
          "internalType": "uint256",
          "name": "_pid",
          "type": "uint256"
        }
      ],
      "name": "emergencyWithdraw",
      "outputs": [],
      "stateMutability": "nonpayable",
      "type": "function"
    },
    {
      "inputs": [
        {
          "internalType": "address",
          "name": "",
          "type": "address"
        }
      ],
      "name": "existsLP",
      "outputs": [
        {
          "internalType": "bool",
          "name": "",
          "type": "bool"
        }
      ],
      "stateMutability": "view",
      "type": "function"
    },
    {
      "inputs": [
        {
          "internalType": "uint256",
          "name": "_from",
          "type": "uint256"
        },
        {
          "internalType": "uint256",
          "name": "_to",
          "type": "uint256"
        }
      ],
      "name": "getMultiplier",
      "outputs": [
        {
          "internalType": "uint256",
          "name": "",
          "type": "uint256"
        }
      ],
      "stateMutability": "view",
      "type": "function"
    },
    {
      "inputs": [
        {
          "internalType": "contract IERC20Mintable",
          "name": "_rewardToken",
          "type": "address"
        },
        {
          "internalType": "uint256",
          "name": "_rewardPerBlock",
          "type": "uint256"
        },
        {
          "internalType": "uint256",
          "name": "_startBlock",
          "type": "uint256"
        }
      ],
      "name": "initialize",
      "outputs": [],
      "stateMutability": "nonpayable",
      "type": "function"
    },
    {
      "inputs": [],
      "name": "massUpdatePools",
      "outputs": [],
      "stateMutability": "nonpayable",
      "type": "function"
    },
    {
      "inputs": [],
      "name": "owner",
      "outputs": [
        {
          "internalType": "address",
          "name": "",
          "type": "address"
        }
      ],
      "stateMutability": "view",
      "type": "function"
    },
    {
      "inputs": [
        {
          "internalType": "uint256",
          "name": "_pid",
          "type": "uint256"
        },
        {
          "internalType": "address",
          "name": "_user",
          "type": "address"
        }
      ],
      "name": "pending",
      "outputs": [
        {
          "internalType": "uint256",
          "name": "",
          "type": "uint256"
        }
      ],
      "stateMutability": "view",
      "type": "function"
    },
    {
      "inputs": [],
      "name": "pendingOwner",
      "outputs": [
        {
          "internalType": "address",
          "name": "",
          "type": "address"
        }
      ],
      "stateMutability": "view",
      "type": "function"
    },
    {
      "inputs": [
        {
          "internalType": "address",
          "name": "",
          "type": "address"
        }
      ],
      "name": "pidOfLP",
      "outputs": [
        {
          "internalType": "uint256",
          "name": "",
          "type": "uint256"
        }
      ],
      "stateMutability": "view",
      "type": "function"
    },
    {
      "inputs": [
        {
          "internalType": "uint256",
          "name": "",
          "type": "uint256"
        }
      ],
      "name": "poolInfo",
      "outputs": [
        {
          "internalType": "contract IERC20",
          "name": "lpToken",
          "type": "address"
        },
        {
          "internalType": "uint256",
          "name": "allocPoint",
          "type": "uint256"
        },
        {
          "internalType": "uint256",
          "name": "lastRewardBlock",
          "type": "uint256"
        },
        {
          "internalType": "uint256",
          "name": "accPerShare",
          "type": "uint256"
        }
      ],
      "stateMutability": "view",
      "type": "function"
    },
    {
      "inputs": [],
      "name": "poolLength",
      "outputs": [
        {
          "internalType": "uint256",
          "name": "",
          "type": "uint256"
        }
      ],
      "stateMutability": "view",
      "type": "function"
    },
    {
      "inputs": [],
      "name": "renounceOwnership",
      "outputs": [],
      "stateMutability": "nonpayable",
      "type": "function"
    },
    {
      "inputs": [],
      "name": "rewardPerBlock",
      "outputs": [
        {
          "internalType": "uint256",
          "name": "",
          "type": "uint256"
        }
      ],
      "stateMutability": "view",
      "type": "function"
    },
    {
      "inputs": [],
      "name": "rewardToken",
      "outputs": [
        {
          "internalType": "contract IERC20Mintable",
          "name": "",
          "type": "address"
        }
      ],
      "stateMutability": "view",
      "type": "function"
    },
    {
      "inputs": [
        {
          "internalType": "uint256",
          "name": "_pid",
          "type": "uint256"
        },
        {
          "internalType": "uint256",
          "name": "_allocPoint",
          "type": "uint256"
        },
        {
          "internalType": "bool",
          "name": "_withUpdate",
          "type": "bool"
        }
      ],
      "name": "set",
      "outputs": [],
      "stateMutability": "nonpayable",
      "type": "function"
    },
    {
      "inputs": [],
      "name": "startBlock",
      "outputs": [
        {
          "internalType": "uint256",
          "name": "",
          "type": "uint256"
        }
      ],
      "stateMutability": "view",
      "type": "function"
    },
    {
      "inputs": [],
      "name": "totalAllocPoint",
      "outputs": [
        {
          "internalType": "uint256",
          "name": "",
          "type": "uint256"
        }
      ],
      "stateMutability": "view",
      "type": "function"
    },
    {
      "inputs": [
        {
          "internalType": "address",
          "name": "newOwner",
          "type": "address"
        }
      ],
      "name": "transferOwnership",
      "outputs": [],
      "stateMutability": "nonpayable",
      "type": "function"
    },
    {
      "inputs": [
        {
          "internalType": "uint256",
          "name": "multiplierNumber",
          "type": "uint256"
        },
        {
          "internalType": "bool",
          "name": "withUpdate",
          "type": "bool"
        }
      ],
      "name": "updateMultiplier",
      "outputs": [],
      "stateMutability": "nonpayable",
      "type": "function"
    },
    {
      "inputs": [
        {
          "internalType": "uint256",
          "name": "_pid",
          "type": "uint256"
        }
      ],
      "name": "updatePool",
      "outputs": [],
      "stateMutability": "nonpayable",
      "type": "function"
    },
    {
      "inputs": [
        {
          "internalType": "uint256",
          "name": "_rewardPerBlock",
          "type": "uint256"
        },
        {
          "internalType": "bool",
          "name": "_withUpdate",
          "type": "bool"
        }
      ],
      "name": "updateRewardPerBlock",
      "outputs": [],
      "stateMutability": "nonpayable",
      "type": "function"
    },
    {
      "inputs": [
        {
          "internalType": "uint256",
          "name": "",
          "type": "uint256"
        },
        {
          "internalType": "address",
          "name": "",
          "type": "address"
        }
      ],
      "name": "userInfo",
      "outputs": [
        {
          "internalType": "uint256",
          "name": "amount",
          "type": "uint256"
        },
        {
          "internalType": "uint256",
          "name": "rewardDebt",
          "type": "uint256"
        }
      ],
      "stateMutability": "view",
      "type": "function"
    },
    {
      "inputs": [
        {
          "internalType": "uint256",
          "name": "_pid",
          "type": "uint256"
        },
        {
          "internalType": "uint256",
          "name": "_amount",
          "type": "uint256"
        }
      ],
      "name": "withdraw",
      "outputs": [],
      "stateMutability": "nonpayable",
      "type": "function"
    }
  ],
  "transactionHash": "0x8db051ad5cc7b6e9b9387e889b3ffb7f40899f7d5834c32f07532054a19cd466",
  "args": [],
  "numDeployments": 1,
  "solcInputHash": "36a974702fb23de9299384c97209262f",
  "bytecode": "0x60806040526000609f5534801561001557600080fd5b506001609755611b168061002a6000396000f3fe608060405234801561001057600080fd5b50600436106101a95760003560e01c80637a1ac61e116100f9578063be4218ee11610097578063e30c397811610071578063e30c3978146103bd578063e4c75c27146103ce578063f2fde38b146103e1578063f7c618c1146103f457600080fd5b8063be4218ee14610377578063bf65476814610397578063e2bbb158146103aa57600080fd5b80638da5cb5b116100d35780638da5cb5b146102e55780638dbb1e3a1461030a57806393f1a40b1461031d578063ae485c1b1461036457600080fd5b80637a1ac61e146102c05780638aa28550146102d35780638ae39cac146102dc57600080fd5b806351eb05a611610166578063630b5ba111610140578063630b5ba11461029557806364482f791461029d578063715018a6146102b057806379ba5097146102b857600080fd5b806351eb05a61461023c5780635312ea8e1461024f578063610b0a5f1461026257600080fd5b8063081e3eda146101ae5780631526fe27146101c557806317caf6f1146102025780631eaaa0451461020b578063441a3e701461022057806348cd4cb114610233575b600080fd5b609b545b6040519081526020015b60405180910390f35b6101d86101d336600461179f565b610407565b604080516001600160a01b03909516855260208501939093529183015260608201526080016101bc565b6101b2609f5481565b61021e6102193660046117db565b61044b565b005b61021e61022e36600461181d565b6106b3565b6101b260a05481565b61021e61024a36600461179f565b610849565b61021e61025d36600461179f565b610a0f565b61028561027036600461183f565b609d6020526000908152604090205460ff1681565b60405190151581526020016101bc565b61021e610ae7565b61021e6102ab366004611863565b610b0e565b61021e610c42565b61021e610c56565b61021e6102ce366004611891565b610ccd565b6101b2609a5481565b6101b260995481565b6033546001600160a01b03165b6040516001600160a01b0390911681526020016101bc565b6101b261031836600461181d565b610e5b565b61034f61032b3660046118c6565b609e6020908152600092835260408084209091529082529020805460019091015482565b604080519283526020830191909152016101bc565b61021e6103723660046118f6565b610e78565b6101b261038536600461183f565b609c6020526000908152604090205481565b61021e6103a53660046118f6565b610ed0565b61021e6103b836600461181d565b610f28565b6065546001600160a01b03166102f2565b6101b26103dc3660046118c6565b611072565b61021e6103ef36600461183f565b6111f5565b6098546102f2906001600160a01b031681565b609b818154811061041757600080fd5b600091825260209091206004909102018054600182015460028301546003909301546001600160a01b039092169350919084565b610453611266565b6098546001600160a01b03908116908316036104ab5760405162461bcd60e51b815260206004820152601260248201527118d85b881b9bdd08185919081c995dd85c9960721b60448201526064015b60405180910390fd5b6001600160a01b0382166000908152609d602052604090205460ff16156105075760405162461bcd60e51b815260206004820152601060248201526f1b1c08185b1c9958591e48195e1a5cdd60821b60448201526064016104a2565b801561051557610515610ae7565b600060a05443116105285760a05461052a565b435b609f5490915061053a90856112c0565b609f55609b80546001600160a01b038581166000818152609c6020908152604080832095909555609d81528482208054600160ff19909116811790915585516080810187529384529083018a815294830187815260608401838152875480840189559388905293517fbba9db4cdbea0a37c207bbb83e20f828cd4441c49891101dc94fd20dc8efc349600490940293840180546001600160a01b031916919096161790945593517fbba9db4cdbea0a37c207bbb83e20f828cd4441c49891101dc94fd20dc8efc34a82015591517fbba9db4cdbea0a37c207bbb83e20f828cd4441c49891101dc94fd20dc8efc34b830155517fbba9db4cdbea0a37c207bbb83e20f828cd4441c49891101dc94fd20dc8efc34c9091015590547fd194e96f60e9745052f77b89a5ee23392770de5846609447847ddcc5868cf55b9161067e91611931565b609f54604080519283526001600160a01b0387166020840152820187905260608201526080015b60405180910390a150505050565b6106bb6112cc565b609b54829081106106de5760405162461bcd60e51b81526004016104a290611944565b6000609b84815481106106f3576106f3611971565b60009182526020808320878452609e8252604080852033865290925292208054600490920290920192508411156107615760405162461bcd60e51b81526020600482015260126024820152711dda5d1a191c985dce881b9bdd0819dbdbd960721b60448201526064016104a2565b61076a85610849565b60006107a4826001015461079e64e8d4a510006107988760030154876000015461132590919063ffffffff16565b90611331565b9061133d565b905080156107b6576107b63382611349565b84156107e05781546107c8908661133d565b825582546107e0906001600160a01b031633876113e0565b600383015482546107fb9164e8d4a510009161079891611325565b6001830155604051858152869033907ff279e6a1f5e320cca91135676d9cb6e44ca8a08c0b88342bcdb1144f6511b5689060200160405180910390a3505050506108456001609755565b5050565b609b548190811061086c5760405162461bcd60e51b81526004016104a290611944565b6000609b838154811061088157610881611971565b90600052602060002090600402019050806002015443116108a157505050565b80546040516370a0823160e01b81523060048201526000916001600160a01b0316906370a0823190602401602060405180830381865afa1580156108e9573d6000803e3d6000fd5b505050506040513d601f19601f8201168201806040525081019061090d9190611987565b9050806000036109235750436002909101555050565b6000610933836002015443610e5b565b90506000610960609f54610798866001015461095a6099548761132590919063ffffffff16565b90611325565b6098546040516340c10f1960e01b8152306004820152602481018390529192506001600160a01b0316906340c10f19906044016020604051808303816000875af11580156109b2573d6000803e3d6000fd5b505050506040513d601f19601f820116820180604052508101906109d69190611987565b90506109f96109ee846107988464e8d4a51000611325565b6003860154906112c0565b6003850155505043600290920191909155505050565b610a176112cc565b609b5481908110610a3a5760405162461bcd60e51b81526004016104a290611944565b6000609b8381548110610a4f57610a4f611971565b60009182526020808320868452609e825260408085203380875293528420805485825560018201959095556004909302018054909450919291610a9f916001600160a01b039190911690836113e0565b604051818152859033907fbb757047c2b5f3974fe26b7c10f732e7bce710b0952a71082702781e62ae05959060200160405180910390a350505050610ae46001609755565b50565b609b5460005b8181101561084557610afe81610849565b610b07816119a0565b9050610aed565b610b16611266565b609b5483908110610b395760405162461bcd60e51b81526004016104a290611944565b8115610b4757610b47610ae7565b6000609b8581548110610b5c57610b5c611971565b906000526020600020906004020160010154905083609b8681548110610b8457610b84611971565b906000526020600020906004020160010181905550838114610bc357610bbf84610bb983609f5461133d90919063ffffffff16565b906112c0565b609f555b7fd194e96f60e9745052f77b89a5ee23392770de5846609447847ddcc5868cf55b85609b8781548110610bf857610bf8611971565b600091825260209182902060049091020154609f54604080519485526001600160a01b03909216928401929092528201879052606082015260800160405180910390a15050505050565b610c4a611266565b610c546000611443565b565b60655433906001600160a01b03168114610cc45760405162461bcd60e51b815260206004820152602960248201527f4f776e61626c6532537465703a2063616c6c6572206973206e6f7420746865206044820152683732bb9037bbb732b960b91b60648201526084016104a2565b610ae481611443565b600054610100900460ff1615808015610ced5750600054600160ff909116105b80610d075750303b158015610d07575060005460ff166001145b610d6a5760405162461bcd60e51b815260206004820152602e60248201527f496e697469616c697a61626c653a20636f6e747261637420697320616c72656160448201526d191e481a5b9a5d1a585b1a5e995960921b60648201526084016104a2565b6000805460ff191660011790558015610d8d576000805461ff0019166101001790555b6001600160a01b038416610dd95760405162461bcd60e51b815260206004820152601360248201527234b63632b3b0b6103932bbb0b9322a37b5b2b760691b60448201526064016104a2565b610de161145c565b610de9611483565b609880546001600160a01b0319166001600160a01b038616179055609983905560a08290556001609a558015610e55576000805461ff0019169055604051600181527f7f26b83ff96e1f2b6a682f133852f6798a09c465da95921460cefb3847402498906020016106a5565b50505050565b609a54600090610e6f9061095a848661133d565b90505b92915050565b610e80611266565b8015610e8e57610e8e610ae7565b60995460408051918252602082018490527f3b7a406bf2b66d0f83f6b1cf4c39edf1269cad80712b94cd80a44d13f61f1357910160405180910390a150609955565b610ed8611266565b8015610ee657610ee6610ae7565b609a5460408051918252602082018490527fbb69b052a57be2126300a5702ad98a79ab8ac71f0d3f61df1fde7e4c68143343910160405180910390a150609a55565b610f306112cc565b609b5482908110610f535760405162461bcd60e51b81526004016104a290611944565b6000609b8481548110610f6857610f68611971565b60009182526020808320878452609e82526040808520338652909252922060049091029091019150610f9985610849565b805415610fe2576000610fce826001015461079e64e8d4a510006107988760030154876000015461132590919063ffffffff16565b90508015610fe057610fe03382611349565b505b831561100e578154610fff906001600160a01b03163330876114b3565b805461100b90856112c0565b81555b600382015481546110299164e8d4a510009161079891611325565b6001820155604051848152859033907f90890809c654f11d6e72a28fa60149770a0d11ec6c92319d6ceb2bb0a4ea1a159060200160405180910390a35050506108456001609755565b609b54600090839081106110985760405162461bcd60e51b81526004016104a290611944565b6000609b85815481106110ad576110ad611971565b60009182526020808320888452609e825260408085206001600160a01b038a81168752935280852060049485029092016003810154815492516370a0823160e01b8152309681019690965290965091949193919216906370a0823190602401602060405180830381865afa158015611129573d6000803e3d6000fd5b505050506040513d601f19601f8201168201806040525081019061114d9190611987565b905083600201544311801561116157508015155b156111c1576000611176856002015443610e5b565b9050600061119d609f54610798886001015461095a6099548761132590919063ffffffff16565b90506111bc6111b5846107988464e8d4a51000611325565b85906112c0565b935050505b6111e9836001015461079e64e8d4a5100061079886886000015461132590919063ffffffff16565b98975050505050505050565b6111fd611266565b606580546001600160a01b0383166001600160a01b0319909116811790915561122e6033546001600160a01b031690565b6001600160a01b03167f38d16b8cac22d99fc7c124b9cd0de2d3fa1faef420bfe791d8c362d765e2270060405160405180910390a350565b6033546001600160a01b03163314610c545760405162461bcd60e51b815260206004820181905260248201527f4f776e61626c653a2063616c6c6572206973206e6f7420746865206f776e657260448201526064016104a2565b6000610e6f82846119b9565b60026097540361131e5760405162461bcd60e51b815260206004820152601f60248201527f5265656e7472616e637947756172643a207265656e7472616e742063616c6c0060448201526064016104a2565b6002609755565b6000610e6f82846119cc565b6000610e6f82846119e3565b6000610e6f8284611931565b6098546040516370a0823160e01b81523060048201526000916001600160a01b0316906370a0823190602401602060405180830381865afa158015611392573d6000803e3d6000fd5b505050506040513d601f19601f820116820180604052508101906113b69190611987565b9050818110156113c4578091505b6098546113db906001600160a01b031684846113e0565b505050565b6040516001600160a01b0383166024820152604481018290526113db90849063a9059cbb60e01b906064015b60408051601f198184030181529190526020810180516001600160e01b03166001600160e01b0319909316929092179091526114eb565b606580546001600160a01b0319169055610ae4816115bd565b600054610100900460ff16610c545760405162461bcd60e51b81526004016104a290611a05565b600054610100900460ff166114aa5760405162461bcd60e51b81526004016104a290611a05565b610c5433611443565b6040516001600160a01b0380851660248301528316604482015260648101829052610e559085906323b872dd60e01b9060840161140c565b6000611540826040518060400160405280602081526020017f5361666545524332303a206c6f772d6c6576656c2063616c6c206661696c6564815250856001600160a01b031661160f9092919063ffffffff16565b8051909150156113db578080602001905181019061155e9190611a50565b6113db5760405162461bcd60e51b815260206004820152602a60248201527f5361666545524332303a204552433230206f7065726174696f6e20646964206e6044820152691bdd081cdd58d8d9595960b21b60648201526084016104a2565b603380546001600160a01b038381166001600160a01b0319831681179093556040519116919082907f8be0079c531659141344cd1fd0a4f28419497f9722a3daafe3b4186f6b6457e090600090a35050565b606061161e8484600085611626565b949350505050565b6060824710156116875760405162461bcd60e51b815260206004820152602660248201527f416464726573733a20696e73756666696369656e742062616c616e636520666f6044820152651c8818d85b1b60d21b60648201526084016104a2565b600080866001600160a01b031685876040516116a39190611a91565b60006040518083038185875af1925050503d80600081146116e0576040519150601f19603f3d011682016040523d82523d6000602084013e6116e5565b606091505b50915091506116f687838387611701565b979650505050505050565b60608315611770578251600003611769576001600160a01b0385163b6117695760405162461bcd60e51b815260206004820152601d60248201527f416464726573733a2063616c6c20746f206e6f6e2d636f6e747261637400000060448201526064016104a2565b508161161e565b61161e83838151156117855781518083602001fd5b8060405162461bcd60e51b81526004016104a29190611aad565b6000602082840312156117b157600080fd5b5035919050565b6001600160a01b0381168114610ae457600080fd5b8015158114610ae457600080fd5b6000806000606084860312156117f057600080fd5b833592506020840135611802816117b8565b91506040840135611812816117cd565b809150509250925092565b6000806040838503121561183057600080fd5b50508035926020909101359150565b60006020828403121561185157600080fd5b813561185c816117b8565b9392505050565b60008060006060848603121561187857600080fd5b83359250602084013591506040840135611812816117cd565b6000806000606084860312156118a657600080fd5b83356118b1816117b8565b95602085013595506040909401359392505050565b600080604083850312156118d957600080fd5b8235915060208301356118eb816117b8565b809150509250929050565b6000806040838503121561190957600080fd5b8235915060208301356118eb816117cd565b634e487b7160e01b600052601160045260246000fd5b81810381811115610e7257610e7261191b565b602080825260139082015272141bdbdb08191bd95cc81b9bdd08195e1a5cdd606a1b604082015260600190565b634e487b7160e01b600052603260045260246000fd5b60006020828403121561199957600080fd5b5051919050565b6000600182016119b2576119b261191b565b5060010190565b80820180821115610e7257610e7261191b565b8082028115828204841417610e7257610e7261191b565b600082611a0057634e487b7160e01b600052601260045260246000fd5b500490565b6020808252602b908201527f496e697469616c697a61626c653a20636f6e7472616374206973206e6f74206960408201526a6e697469616c697a696e6760a81b606082015260800190565b600060208284031215611a6257600080fd5b815161185c816117cd565b60005b83811015611a88578181015183820152602001611a70565b50506000910152565b60008251611aa3818460208701611a6d565b9190910192915050565b6020815260008251806020840152611acc816040850160208701611a6d565b601f01601f1916919091016040019291505056fea26469706673582212208b84264d1661c218e9976db905865caf1dc847939bd552995644983316cf291b64736f6c63430008110033",
  "devdoc": {
    "kind": "dev",
    "methods": {
      "acceptOwnership()": {
        "details": "The new owner accepts the ownership transfer."
      },
      "owner()": {
        "details": "Returns the address of the current owner."
      },
      "pendingOwner()": {
        "details": "Returns the address of the pending owner."
      },
      "renounceOwnership()": {
        "details": "Leaves the contract without owner. It will not be possible to call `onlyOwner` functions anymore. Can only be called by the current owner. NOTE: Renouncing ownership will leave the contract without an owner, thereby removing any functionality that is only available to the owner."
      },
      "transferOwnership(address)": {
        "details": "Starts the ownership transfer of the contract to a new account. Replaces the pending transfer if there is one. Can only be called by the current owner."
      }
    },
    "version": 1
  },
  "userdoc": {
    "kind": "user",
    "methods": {},
    "version": 1
  },
  "storageLayout": {
    "storage": [
      {
        "astId": 244,
        "contract": "contracts/MasterChef.sol:MasterChef",
        "label": "_initialized",
        "offset": 0,
        "slot": "0",
        "type": "t_uint8"
      },
      {
        "astId": 247,
        "contract": "contracts/MasterChef.sol:MasterChef",
        "label": "_initializing",
        "offset": 1,
        "slot": "0",
        "type": "t_bool"
      },
      {
        "astId": 731,
        "contract": "contracts/MasterChef.sol:MasterChef",
        "label": "__gap",
        "offset": 0,
        "slot": "1",
        "type": "t_array(t_uint256)50_storage"
      },
      {
        "astId": 116,
        "contract": "contracts/MasterChef.sol:MasterChef",
        "label": "_owner",
        "offset": 0,
        "slot": "51",
        "type": "t_address"
      },
      {
        "astId": 236,
        "contract": "contracts/MasterChef.sol:MasterChef",
        "label": "__gap",
        "offset": 0,
        "slot": "52",
        "type": "t_array(t_uint256)49_storage"
      },
      {
        "astId": 25,
        "contract": "contracts/MasterChef.sol:MasterChef",
        "label": "_pendingOwner",
        "offset": 0,
        "slot": "101",
        "type": "t_address"
      },
      {
        "astId": 104,
        "contract": "contracts/MasterChef.sol:MasterChef",
        "label": "__gap",
        "offset": 0,
        "slot": "102",
        "type": "t_array(t_uint256)49_storage"
      },
      {
        "astId": 743,
        "contract": "contracts/MasterChef.sol:MasterChef",
        "label": "_status",
        "offset": 0,
        "slot": "151",
        "type": "t_uint256"
      },
      {
        "astId": 1859,
        "contract": "contracts/MasterChef.sol:MasterChef",
        "label": "rewardToken",
        "offset": 0,
        "slot": "152",
        "type": "t_contract(IERC20Mintable)2830"
      },
      {
        "astId": 1861,
        "contract": "contracts/MasterChef.sol:MasterChef",
        "label": "rewardPerBlock",
        "offset": 0,
        "slot": "153",
        "type": "t_uint256"
      },
      {
        "astId": 1863,
        "contract": "contracts/MasterChef.sol:MasterChef",
        "label": "BONUS_MULTIPLIER",
        "offset": 0,
        "slot": "154",
        "type": "t_uint256"
      },
      {
        "astId": 1867,
        "contract": "contracts/MasterChef.sol:MasterChef",
        "label": "poolInfo",
        "offset": 0,
        "slot": "155",
        "type": "t_array(t_struct(PoolInfo)1856_storage)dyn_storage"
      },
      {
        "astId": 1871,
        "contract": "contracts/MasterChef.sol:MasterChef",
        "label": "pidOfLP",
        "offset": 0,
        "slot": "156",
        "type": "t_mapping(t_address,t_uint256)"
      },
      {
        "astId": 1875,
        "contract": "contracts/MasterChef.sol:MasterChef",
        "label": "existsLP",
        "offset": 0,
        "slot": "157",
        "type": "t_mapping(t_address,t_bool)"
      },
      {
        "astId": 1882,
        "contract": "contracts/MasterChef.sol:MasterChef",
        "label": "userInfo",
        "offset": 0,
        "slot": "158",
        "type": "t_mapping(t_uint256,t_mapping(t_address,t_struct(UserInfo)1846_storage))"
      },
      {
        "astId": 1885,
        "contract": "contracts/MasterChef.sol:MasterChef",
        "label": "totalAllocPoint",
        "offset": 0,
        "slot": "159",
        "type": "t_uint256"
      },
      {
        "astId": 1887,
        "contract": "contracts/MasterChef.sol:MasterChef",
        "label": "startBlock",
        "offset": 0,
        "slot": "160",
        "type": "t_uint256"
      }
    ],
    "types": {
      "t_address": {
        "encoding": "inplace",
        "label": "address",
        "numberOfBytes": "20"
      },
      "t_array(t_struct(PoolInfo)1856_storage)dyn_storage": {
        "base": "t_struct(PoolInfo)1856_storage",
        "encoding": "dynamic_array",
        "label": "struct MasterChef.PoolInfo[]",
        "numberOfBytes": "32"
      },
      "t_array(t_uint256)49_storage": {
        "base": "t_uint256",
        "encoding": "inplace",
        "label": "uint256[49]",
        "numberOfBytes": "1568"
      },
      "t_array(t_uint256)50_storage": {
        "base": "t_uint256",
        "encoding": "inplace",
        "label": "uint256[50]",
        "numberOfBytes": "1600"
      },
      "t_bool": {
        "encoding": "inplace",
        "label": "bool",
        "numberOfBytes": "1"
      },
      "t_contract(IERC20)864": {
        "encoding": "inplace",
        "label": "contract IERC20",
        "numberOfBytes": "20"
      },
      "t_contract(IERC20Mintable)2830": {
        "encoding": "inplace",
        "label": "contract IERC20Mintable",
        "numberOfBytes": "20"
      },
      "t_mapping(t_address,t_bool)": {
        "encoding": "mapping",
        "key": "t_address",
        "label": "mapping(address => bool)",
        "numberOfBytes": "32",
        "value": "t_bool"
      },
      "t_mapping(t_address,t_struct(UserInfo)1846_storage)": {
        "encoding": "mapping",
        "key": "t_address",
        "label": "mapping(address => struct MasterChef.UserInfo)",
        "numberOfBytes": "32",
        "value": "t_struct(UserInfo)1846_storage"
      },
      "t_mapping(t_address,t_uint256)": {
        "encoding": "mapping",
        "key": "t_address",
        "label": "mapping(address => uint256)",
        "numberOfBytes": "32",
        "value": "t_uint256"
      },
      "t_mapping(t_uint256,t_mapping(t_address,t_struct(UserInfo)1846_storage))": {
        "encoding": "mapping",
        "key": "t_uint256",
        "label": "mapping(uint256 => mapping(address => struct MasterChef.UserInfo))",
        "numberOfBytes": "32",
        "value": "t_mapping(t_address,t_struct(UserInfo)1846_storage)"
      },
      "t_struct(PoolInfo)1856_storage": {
        "encoding": "inplace",
        "label": "struct MasterChef.PoolInfo",
        "members": [
          {
            "astId": 1849,
            "contract": "contracts/MasterChef.sol:MasterChef",
            "label": "lpToken",
            "offset": 0,
            "slot": "0",
            "type": "t_contract(IERC20)864"
          },
          {
            "astId": 1851,
            "contract": "contracts/MasterChef.sol:MasterChef",
            "label": "allocPoint",
            "offset": 0,
            "slot": "1",
            "type": "t_uint256"
          },
          {
            "astId": 1853,
            "contract": "contracts/MasterChef.sol:MasterChef",
            "label": "lastRewardBlock",
            "offset": 0,
            "slot": "2",
            "type": "t_uint256"
          },
          {
            "astId": 1855,
            "contract": "contracts/MasterChef.sol:MasterChef",
            "label": "accPerShare",
            "offset": 0,
            "slot": "3",
            "type": "t_uint256"
          }
        ],
        "numberOfBytes": "128"
      },
      "t_struct(UserInfo)1846_storage": {
        "encoding": "inplace",
        "label": "struct MasterChef.UserInfo",
        "members": [
          {
            "astId": 1843,
            "contract": "contracts/MasterChef.sol:MasterChef",
            "label": "amount",
            "offset": 0,
            "slot": "0",
            "type": "t_uint256"
          },
          {
            "astId": 1845,
            "contract": "contracts/MasterChef.sol:MasterChef",
            "label": "rewardDebt",
            "offset": 0,
            "slot": "1",
            "type": "t_uint256"
          }
        ],
        "numberOfBytes": "64"
      },
      "t_uint256": {
        "encoding": "inplace",
        "label": "uint256",
        "numberOfBytes": "32"
      },
      "t_uint8": {
        "encoding": "inplace",
        "label": "uint8",
        "numberOfBytes": "1"
      }
    }
  }
}